00COTAHIST.2012BOVESPA 20120808                                                                                                                                                                                                                      
012012010202ABCB4       010ABC BRASIL  PN  EJ  N2   R$  000000000122100000000012440000000001175000000000119400000000011850000000001185000000000119300465000000000000131800000000000157420100000000000000009999123100000010000000000000BRABCBACNPR4117
012012010296ABCB4F      020ABC BRASIL  PN  EJ  N2   R$  000000000120000000000012000000000001161000000000119200000000011610000000001163000000000124600008000000000000000165000000000000196680000000000000009999123100000010000000000000BRABCBACNPR4117
012012010212ABCP11      010FII ABC IMOBCI  ER       R$  000000000080000000000008000000000000800000000000080000000000008000000000000772000000000080000002000000000000001272000000000001017600000000000000009999123100000010000000000000BRABCPCTF000195
012012010202ABRE11      010ABRIL EDUCA UNT     N2   R$  000000000205700000000020850000000002057000000000208300000000020850000000002054000000000208500019000000000000019100000000000039788700000000000000009999123100000010000000000000BRABRECDAM15100
012012010296ABRE11F     020ABRIL EDUCA UNT     N2   R$  000000000205500000000020550000000002055000000000205500000000020550000000002000000000000211400001000000000000000050000000000000102750000000000000009999123100000010000000000000BRABRECDAM15100
012012010202AEDU3       010ANHANGUERA  ON      NM   R$  000000000202000000000020460000000001965000000000200500000000020460000000002011000000000204600579000000000000132100000000000264870100000000000000009999123100000010000000000000BRAEDUACNOR9105
012012010296AEDU3F      020ANHANGUERA  ON      NM   R$  000000000196700000000020300000000001908000000000198100000000020300000000001930000000000213000012000000000000000420000000000000832069000000000000009999123100000010000000000000BRAEDUACNOR9105
012012010212AEFI11      010FII AESAPAR CI  ER       R$  000000000994100000000101000000000009941000000001003100000000100800000000010065000000001008000035000000000000003648000000000036596339000000000000009999123100000010000000000000BRAEFICTF002101
012012010202AELP3       010AES ELPA    ON           R$  000000000455000000000045500000000004550000000000455000000000045500000000004208000000000450000001000000000000000200000000000000910000000000000000009999123100000010000000000000BRAELPACNOR2118
012012080896WEGE3F      020WEG         ON      NM   R$  000000000191300000000019200000000001901000000000191100000000019020000000001916000000000191900010000000000000000305000000000000583049000000000000009999123100000010000000000000BRWEGEACNOR0148
012012080862WEGE3T      030WEG         ON      NM033R$  000000000192600000000019330000000001926000000000192800000000019330000000000000000000000000000010000000000000006000000000000011570135000000000000009999123100000010000000000000BRWEGEACNOR0148
012012080802WHRL3       010WHIRLPOOL   ON           R$  000000000031000000000003100000000000310000000000031000000000003100000000000305000000000030900001000000000000002300000000000000713000000000000000009999123100000010000000000000BRWHRLACNOR5111
012012080896WHRL3F      020WHIRLPOOL   ON           R$  000000000031100000000003110000000000311000000000031100000000003110000000000305000000000031100004000000000000000120000000000000037320000000000000009999123100000010000000000000BRWHRLACNOR5111
012012080802WHRL4       010WHIRLPOOL   PN           R$  000000000031500000000003180000000000315000000000031500000000003180000000000311000000000032700002000000000000003600000000000001134300000000000000009999123100000010000000000000BRWHRLACNPR2111
012012080896WHRL4F      020WHIRLPOOL   PN           R$  000000000033600000000003360000000000336000000000033600000000003360000000000303000000000033600001000000000000000040000000000000013440000000000000009999123100000010000000000000BRWHRLACNPR2111
012012080812WPLZ11B     010FII W PLAZA CI      MB   R$  000000000750000000000075000000000006010000000000704400000000072000000000007120000000000720000142000000000000009599000000000067618140000000000000009999123100000010000000000000BRWPLZCTF004146
012012080802WSON11      010WILSON SONS DR3          R$  000000000304900000000030490000000003049000000000304900000000030490000000002400000000000305000001000000000000000100000000000000304900000000000000009999123100000010000000000000BRWSONBDR009105
012012080812XPGA11      010FII XP GAIA CI  ERS      R$  000000001110000000000111590000000010775000000001092000000000107900000000010790000000001087000304000000000000013079000000000142829326000000000000009999123100000010000000000000BRXPGACTF005109
99COTAHIST.2012BOVESPA 2012080800000197525                                                                                                                                                                                                           
